{
  "address": "0x9EbAd392C3ecAe0CEb9b554b94ab44F2c21B8504",
  "abi": [
    {
      "inputs": [
        {
          "internalType": "bytes32",
          "name": "_job_Id",
          "type": "bytes32"
        },
        {
          "internalType": "address",
          "name": "_operator",
          "type": "address"
        },
        {
          "internalType": "uint256",
          "name": "_fee",
          "type": "uint256"
        },
        {
          "internalType": "address",
          "name": "_link_Token",
          "type": "address"
        }
      ],
      "stateMutability": "nonpayable",
      "type": "constructor"
    },
    {
      "anonymous": false,
      "inputs": [
        {
          "indexed": true,
          "internalType": "bytes32",
          "name": "id",
          "type": "bytes32"
        }
      ],
      "name": "ChainlinkCancelled",
      "type": "event"
    },
    {
      "anonymous": false,
      "inputs": [
        {
          "indexed": true,
          "internalType": "bytes32",
          "name": "id",
          "type": "bytes32"
        }
      ],
      "name": "ChainlinkFulfilled",
      "type": "event"
    },
    {
      "anonymous": false,
      "inputs": [
        {
          "indexed": true,
          "internalType": "bytes32",
          "name": "id",
          "type": "bytes32"
        }
      ],
      "name": "ChainlinkRequested",
      "type": "event"
    },
    {
      "anonymous": false,
      "inputs": [
        {
          "indexed": true,
          "internalType": "address",
          "name": "previousOwner",
          "type": "address"
        },
        {
          "indexed": true,
          "internalType": "address",
          "name": "newOwner",
          "type": "address"
        }
      ],
      "name": "OwnershipTransferred",
      "type": "event"
    },
    {
      "anonymous": false,
      "inputs": [
        {
          "indexed": true,
          "internalType": "bytes32",
          "name": "requestId",
          "type": "bytes32"
        },
        {
          "indexed": false,
          "internalType": "string",
          "name": "status",
          "type": "string"
        }
      ],
      "name": "StatusFufilled",
      "type": "event"
    },
    {
      "inputs": [
        {
          "internalType": "bytes32",
          "name": "_requestId",
          "type": "bytes32"
        },
        {
          "internalType": "string",
          "name": "_status",
          "type": "string"
        }
      ],
      "name": "fulfillHumanityStatus",
      "outputs": [],
      "stateMutability": "nonpayable",
      "type": "function"
    },
    {
      "inputs": [
        {
          "internalType": "address",
          "name": "_user",
          "type": "address"
        }
      ],
      "name": "getVerificationStatus",
      "outputs": [
        {
          "internalType": "string",
          "name": "",
          "type": "string"
        }
      ],
      "stateMutability": "view",
      "type": "function"
    },
    {
      "inputs": [],
      "name": "owner",
      "outputs": [
        {
          "internalType": "address",
          "name": "",
          "type": "address"
        }
      ],
      "stateMutability": "view",
      "type": "function"
    },
    {
      "inputs": [],
      "name": "renounceOwnership",
      "outputs": [],
      "stateMutability": "nonpayable",
      "type": "function"
    },
    {
      "inputs": [],
      "name": "requestHumanityStatus",
      "outputs": [
        {
          "internalType": "bytes32",
          "name": "requestId",
          "type": "bytes32"
        }
      ],
      "stateMutability": "nonpayable",
      "type": "function"
    },
    {
      "inputs": [
        {
          "internalType": "address",
          "name": "",
          "type": "address"
        }
      ],
      "name": "s_UserToVerificationStatus",
      "outputs": [
        {
          "internalType": "string",
          "name": "",
          "type": "string"
        }
      ],
      "stateMutability": "view",
      "type": "function"
    },
    {
      "inputs": [
        {
          "internalType": "string",
          "name": "_path",
          "type": "string"
        },
        {
          "internalType": "string",
          "name": "_baseApi",
          "type": "string"
        }
      ],
      "name": "setQueryParams",
      "outputs": [],
      "stateMutability": "nonpayable",
      "type": "function"
    },
    {
      "inputs": [
        {
          "internalType": "address",
          "name": "newOwner",
          "type": "address"
        }
      ],
      "name": "transferOwnership",
      "outputs": [],
      "stateMutability": "nonpayable",
      "type": "function"
    },
    {
      "inputs": [],
      "name": "withdrawLink",
      "outputs": [],
      "stateMutability": "nonpayable",
      "type": "function"
    }
  ],
  "transactionHash": "0xb432219c2b3f736f9a90e6653417423369e4b7f94a797f20c7144290f96188f0",
  "args": [
    {
      "0": 50,
      "1": 57,
      "2": 56,
      "3": 51,
      "4": 101,
      "5": 54,
      "6": 101,
      "7": 53,
      "8": 98,
      "9": 56,
      "10": 52,
      "11": 50,
      "12": 52,
      "13": 48,
      "14": 54,
      "15": 99,
      "16": 57,
      "17": 98,
      "18": 98,
      "19": 48,
      "20": 53,
      "21": 100,
      "22": 56,
      "23": 50,
      "24": 99,
      "25": 56,
      "26": 97,
      "27": 102,
      "28": 99,
      "29": 51,
      "30": 48,
      "31": 100
    },
    "0x1F4aA12370490C7cd4570cd08B1be419e507C9D1",
    "100000000000000000",
    "0x326C977E6efc84E512bB9C30f76E30c160eD06FB"
  ],
  "numDeployments": 1,
  "solcInputHash": "997a2c37219f04c95287f9fc15511d46",
  "bytecode": "0x60c060405260016004553480156200001657600080fd5b5060405162002a5438038062002a5483398181016040528101906200003c9190620002ce565b6200005c620000506200009860201b60201c565b620000a060201b60201c565b6200006d816200016660201b60201c565b6200007e83620001aa60201b60201c565b83608081815250508160a081815250505050505062000340565b600033905090565b6000600660009054906101000a900473ffffffffffffffffffffffffffffffffffffffff16905081600660006101000a81548173ffffffffffffffffffffffffffffffffffffffff021916908373ffffffffffffffffffffffffffffffffffffffff1602179055508173ffffffffffffffffffffffffffffffffffffffff168173ffffffffffffffffffffffffffffffffffffffff167f8be0079c531659141344cd1fd0a4f28419497f9722a3daafe3b4186f6b6457e060405160405180910390a35050565b80600260006101000a81548173ffffffffffffffffffffffffffffffffffffffff021916908373ffffffffffffffffffffffffffffffffffffffff16021790555050565b80600360006101000a81548173ffffffffffffffffffffffffffffffffffffffff021916908373ffffffffffffffffffffffffffffffffffffffff16021790555050565b600080fd5b6000819050919050565b6200020881620001f3565b81146200021457600080fd5b50565b6000815190506200022881620001fd565b92915050565b600073ffffffffffffffffffffffffffffffffffffffff82169050919050565b60006200025b826200022e565b9050919050565b6200026d816200024e565b81146200027957600080fd5b50565b6000815190506200028d8162000262565b92915050565b6000819050919050565b620002a88162000293565b8114620002b457600080fd5b50565b600081519050620002c8816200029d565b92915050565b60008060008060808587031215620002eb57620002ea620001ee565b5b6000620002fb8782880162000217565b94505060206200030e878288016200027c565b93505060406200032187828801620002b7565b925050606062000334878288016200027c565b91505092959194509250565b60805160a0516126ee620003666000396000610351015260006101a401526126ee6000f3fe608060405234801561001057600080fd5b50600436106100935760003560e01c8063715018a611610066578063715018a61461011e57806382a78f17146101285780638da5cb5b146101585780638dc654a214610176578063f2fde38b1461018057610093565b8063106231981461009857806336a5a404146100b65780636103681a146100d2578063708d3aa214610102575b600080fd5b6100a061019c565b6040516100ad91906115c1565b60405180910390f35b6100d060048036038101906100cb9190611736565b61037b565b005b6100ec60048036038101906100e7919061180c565b6103a7565b6040516100f991906118c1565b60405180910390f35b61011c6004803603810190610117919061190f565b610478565b005b61012661063a565b005b610142600480360381019061013d919061180c565b61064e565b60405161014f91906118c1565b60405180910390f35b6101606106ee565b60405161016d919061197a565b60405180910390f35b61017e610718565b005b61019a6004803603810190610195919061180c565b610865565b005b6000806101d17f00000000000000000000000000000000000000000000000000000000000000003063708d3aa260e01b6108e8565b90506102256040518060400160405280600381526020017f676574000000000000000000000000000000000000000000000000000000000081525061021533610919565b8361096b9092919063ffffffff16565b6102f96040518060400160405280600481526020017f70617468000000000000000000000000000000000000000000000000000000008152506007805461026b906119c4565b80601f0160208091040260200160405190810160405280929190818152602001828054610297906119c4565b80156102e45780601f106102b9576101008083540402835291602001916102e4565b820191906000526020600020905b8154815290600101906020018083116102c757829003601f168201915b50505050508361096b9092919063ffffffff16565b336009600084815260200190815260200160002060006101000a81548173ffffffffffffffffffffffffffffffffffffffff021916908373ffffffffffffffffffffffffffffffffffffffff160217905550610375817f000000000000000000000000000000000000000000000000000000000000000061099e565b91505090565b6103836109d5565b81600790816103929190611bab565b5080600890816103a29190611bab565b505050565b6060600a60008373ffffffffffffffffffffffffffffffffffffffff1673ffffffffffffffffffffffffffffffffffffffff16815260200190815260200160002080546103f3906119c4565b80601f016020809104026020016040519081016040528092919081815260200182805461041f906119c4565b801561046c5780601f106104415761010080835404028352916020019161046c565b820191906000526020600020905b81548152906001019060200180831161044f57829003601f168201915b50505050509050919050565b816005600082815260200190815260200160002060009054906101000a900473ffffffffffffffffffffffffffffffffffffffff1673ffffffffffffffffffffffffffffffffffffffff163373ffffffffffffffffffffffffffffffffffffffff161461051a576040517f08c379a000000000000000000000000000000000000000000000000000000000815260040161051190611cef565b60405180910390fd5b6005600082815260200190815260200160002060006101000a81549073ffffffffffffffffffffffffffffffffffffffff0219169055807f7cc135e0cebb02c3480ae5d74d377283180a2601f8f644edf7987b009316c63a60405160405180910390a2827f63b56ddc8e8a38cb447de2e87a230ab35aebbebb9f1badf1ca612b379949cbdb836040516105ad91906118c1565b60405180910390a281600a60006009600087815260200190815260200160002060009054906101000a900473ffffffffffffffffffffffffffffffffffffffff1673ffffffffffffffffffffffffffffffffffffffff1673ffffffffffffffffffffffffffffffffffffffff16815260200190815260200160002090816106349190611bab565b50505050565b6106426109d5565b61064c6000610a53565b565b600a602052806000526040600020600091509050805461066d906119c4565b80601f0160208091040260200160405190810160405280929190818152602001828054610699906119c4565b80156106e65780601f106106bb576101008083540402835291602001916106e6565b820191906000526020600020905b8154815290600101906020018083116106c957829003601f168201915b505050505081565b6000600660009054906101000a900473ffffffffffffffffffffffffffffffffffffffff16905090565b6107206109d5565b600061072a610b19565b90508073ffffffffffffffffffffffffffffffffffffffff1663a9059cbb338373ffffffffffffffffffffffffffffffffffffffff166370a08231306040518263ffffffff1660e01b8152600401610782919061197a565b602060405180830381865afa15801561079f573d6000803e3d6000fd5b505050506040513d601f19601f820116820180604052508101906107c39190611d3b565b6040518363ffffffff1660e01b81526004016107e0929190611d77565b6020604051808303816000875af11580156107ff573d6000803e3d6000fd5b505050506040513d601f19601f820116820180604052508101906108239190611dd8565b610862576040517f08c379a000000000000000000000000000000000000000000000000000000000815260040161085990611e51565b60405180910390fd5b50565b61086d6109d5565b600073ffffffffffffffffffffffffffffffffffffffff168173ffffffffffffffffffffffffffffffffffffffff16036108dc576040517f08c379a00000000000000000000000000000000000000000000000000000000081526004016108d390611ee3565b60405180910390fd5b6108e581610a53565b50565b6108f0611521565b6108f8611521565b61090f85858584610b43909392919063ffffffff16565b9150509392505050565b6060600061093e8373ffffffffffffffffffffffffffffffffffffffff166014610bf3565b9050600881604051602001610954929190611fc2565b604051602081830303815290604052915050919050565b610982828460800151610e2f90919063ffffffff16565b610999818460800151610e2f90919063ffffffff16565b505050565b60006109cd600360009054906101000a900473ffffffffffffffffffffffffffffffffffffffff168484610e54565b905092915050565b6109dd610f1e565b73ffffffffffffffffffffffffffffffffffffffff166109fb6106ee565b73ffffffffffffffffffffffffffffffffffffffff1614610a51576040517f08c379a0000000000000000000000000000000000000000000000000000000008152600401610a4890612032565b60405180910390fd5b565b6000600660009054906101000a900473ffffffffffffffffffffffffffffffffffffffff16905081600660006101000a81548173ffffffffffffffffffffffffffffffffffffffff021916908373ffffffffffffffffffffffffffffffffffffffff1602179055508173ffffffffffffffffffffffffffffffffffffffff168173ffffffffffffffffffffffffffffffffffffffff167f8be0079c531659141344cd1fd0a4f28419497f9722a3daafe3b4186f6b6457e060405160405180910390a35050565b6000600260009054906101000a900473ffffffffffffffffffffffffffffffffffffffff16905090565b610b4b611521565b610b5b8560800151610100610f26565b508385600001818152505082856020019073ffffffffffffffffffffffffffffffffffffffff16908173ffffffffffffffffffffffffffffffffffffffff16815250508185604001907bffffffffffffffffffffffffffffffffffffffffffffffffffffffff191690817bffffffffffffffffffffffffffffffffffffffffffffffffffffffff191681525050849050949350505050565b606060006002836002610c069190612081565b610c1091906120db565b67ffffffffffffffff811115610c2957610c2861160b565b5b6040519080825280601f01601f191660200182016040528015610c5b5781602001600182028036833780820191505090505b5090507f300000000000000000000000000000000000000000000000000000000000000081600081518110610c9357610c92612131565b5b60200101907effffffffffffffffffffffffffffffffffffffffffffffffffffffffffffff1916908160001a9053507f780000000000000000000000000000000000000000000000000000000000000081600181518110610cf757610cf6612131565b5b60200101907effffffffffffffffffffffffffffffffffffffffffffffffffffffffffffff1916908160001a90535060006001846002610d379190612081565b610d4191906120db565b90505b6001811115610de1577f3031323334353637383961626364656600000000000000000000000000000000600f861660108110610d8357610d82612131565b5b1a60f81b828281518110610d9a57610d99612131565b5b60200101907effffffffffffffffffffffffffffffffffffffffffffffffffffffffffffff1916908160001a905350600485901c945080610dda90612160565b9050610d44565b5060008414610e25576040517f08c379a0000000000000000000000000000000000000000000000000000000008152600401610e1c906121d5565b60405180910390fd5b8091505092915050565b610e3c8260038351610f90565b610e4f818361111590919063ffffffff16565b505050565b6000806004549050600181610e6991906120db565b6004819055506000633c6d41b960e01b600080876000015188604001518660028b6080015160000151604051602401610ea89796959493929190612285565b604051602081830303815290604052907bffffffffffffffffffffffffffffffffffffffffffffffffffffffff19166020820180517bffffffffffffffffffffffffffffffffffffffffffffffffffffffff83818316178352505050509050610f1386838684611137565b925050509392505050565b600033905090565b610f2e61158e565b6000602083610f3d919061232a565b14610f6957602082610f4f919061232a565b6020610f5b919061235b565b82610f6691906120db565b91505b81836020018181525050604051808452600081528281016020016040525082905092915050565b60178167ffffffffffffffff1611610fc757610fc18160058460ff16901b60ff1617846112cc90919063ffffffff16565b50611110565b60ff8167ffffffffffffffff161161101d57610ff6601860058460ff16901b17846112cc90919063ffffffff16565b506110178167ffffffffffffffff166001856112ec9092919063ffffffff16565b5061110f565b61ffff8167ffffffffffffffff16116110745761104d601960058460ff16901b17846112cc90919063ffffffff16565b5061106e8167ffffffffffffffff166002856112ec9092919063ffffffff16565b5061110e565b63ffffffff8167ffffffffffffffff16116110cd576110a6601a60058460ff16901b17846112cc90919063ffffffff16565b506110c78167ffffffffffffffff166004856112ec9092919063ffffffff16565b5061110d565b6110ea601b60058460ff16901b17846112cc90919063ffffffff16565b5061110b8167ffffffffffffffff166008856112ec9092919063ffffffff16565b505b5b5b5b505050565b61111d61158e565b61112f8384600001515184855161130e565b905092915050565b6000308460405160200161114c92919061243e565b604051602081830303815290604052805190602001209050846005600083815260200190815260200160002060006101000a81548173ffffffffffffffffffffffffffffffffffffffff021916908373ffffffffffffffffffffffffffffffffffffffff160217905550807fb5e6e01e79f91267dc17b4e6314d5d4d03593d2ceee0fbb452b750bd70ea5af960405160405180910390a2600260009054906101000a900473ffffffffffffffffffffffffffffffffffffffff1673ffffffffffffffffffffffffffffffffffffffff16634000aea08685856040518463ffffffff1660e01b81526004016112429392919061246a565b6020604051808303816000875af1158015611261573d6000803e3d6000fd5b505050506040513d601f19601f820116820180604052508101906112859190611dd8565b6112c4576040517f08c379a00000000000000000000000000000000000000000000000000000000081526004016112bb9061251a565b60405180910390fd5b949350505050565b6112d461158e565b6112e483846000015151846113fd565b905092915050565b6112f461158e565b611305848560000151518585611453565b90509392505050565b61131661158e565b825182111561132457600080fd5b8460200151828561133591906120db565b111561136a5761136985600261135a8860200151888761135591906120db565b6114e1565b6113649190612081565b6114fd565b5b6000808651805187602083010193508088870111156113895787860182525b60208701925050505b602084106113d057805182526020826113ab91906120db565b91506020816113ba91906120db565b90506020846113c9919061235b565b9350611392565b60006001856020036101000a03905080198251168184511681811785525050508692505050949350505050565b61140561158e565b8360200151831061142b5761142a84600286602001516114259190612081565b6114fd565b5b83518051602085830101848153818603611446576001820183525b5050508390509392505050565b61145b61158e565b8460200151848361146c91906120db565b111561149457611493856002868561148491906120db565b61148e9190612081565b6114fd565b5b60006001836101006114a6919061266d565b6114b0919061235b565b905085518386820101858319825116178152815185880111156114d35784870182525b505085915050949350505050565b6000818311156114f3578290506114f7565b8190505b92915050565b6000826000015190506115108383610f26565b5061151b8382611115565b50505050565b6040518060a0016040528060008019168152602001600073ffffffffffffffffffffffffffffffffffffffff16815260200160007bffffffffffffffffffffffffffffffffffffffffffffffffffffffff191681526020016000815260200161158861158e565b81525090565b604051806040016040528060608152602001600081525090565b6000819050919050565b6115bb816115a8565b82525050565b60006020820190506115d660008301846115b2565b92915050565b6000604051905090565b600080fd5b600080fd5b600080fd5b600080fd5b6000601f19601f8301169050919050565b7f4e487b7100000000000000000000000000000000000000000000000000000000600052604160045260246000fd5b611643826115fa565b810181811067ffffffffffffffff821117156116625761166161160b565b5b80604052505050565b60006116756115dc565b9050611681828261163a565b919050565b600067ffffffffffffffff8211156116a1576116a061160b565b5b6116aa826115fa565b9050602081019050919050565b82818337600083830152505050565b60006116d96116d484611686565b61166b565b9050828152602081018484840111156116f5576116f46115f5565b5b6117008482856116b7565b509392505050565b600082601f83011261171d5761171c6115f0565b5b813561172d8482602086016116c6565b91505092915050565b6000806040838503121561174d5761174c6115e6565b5b600083013567ffffffffffffffff81111561176b5761176a6115eb565b5b61177785828601611708565b925050602083013567ffffffffffffffff811115611798576117976115eb565b5b6117a485828601611708565b9150509250929050565b600073ffffffffffffffffffffffffffffffffffffffff82169050919050565b60006117d9826117ae565b9050919050565b6117e9816117ce565b81146117f457600080fd5b50565b600081359050611806816117e0565b92915050565b600060208284031215611822576118216115e6565b5b6000611830848285016117f7565b91505092915050565b600081519050919050565b600082825260208201905092915050565b60005b83811015611873578082015181840152602081019050611858565b83811115611882576000848401525b50505050565b600061189382611839565b61189d8185611844565b93506118ad818560208601611855565b6118b6816115fa565b840191505092915050565b600060208201905081810360008301526118db8184611888565b905092915050565b6118ec816115a8565b81146118f757600080fd5b50565b600081359050611909816118e3565b92915050565b60008060408385031215611926576119256115e6565b5b6000611934858286016118fa565b925050602083013567ffffffffffffffff811115611955576119546115eb565b5b61196185828601611708565b9150509250929050565b611974816117ce565b82525050565b600060208201905061198f600083018461196b565b92915050565b7f4e487b7100000000000000000000000000000000000000000000000000000000600052602260045260246000fd5b600060028204905060018216806119dc57607f821691505b6020821081036119ef576119ee611995565b5b50919050565b60008190508160005260206000209050919050565b60006020601f8301049050919050565b600082821b905092915050565b600060088302611a577fffffffffffffffffffffffffffffffffffffffffffffffffffffffffffffffff82611a1a565b611a618683611a1a565b95508019841693508086168417925050509392505050565b6000819050919050565b6000819050919050565b6000611aa8611aa3611a9e84611a79565b611a83565b611a79565b9050919050565b6000819050919050565b611ac283611a8d565b611ad6611ace82611aaf565b848454611a27565b825550505050565b600090565b611aeb611ade565b611af6818484611ab9565b505050565b5b81811015611b1a57611b0f600082611ae3565b600181019050611afc565b5050565b601f821115611b5f57611b30816119f5565b611b3984611a0a565b81016020851015611b48578190505b611b5c611b5485611a0a565b830182611afb565b50505b505050565b600082821c905092915050565b6000611b8260001984600802611b64565b1980831691505092915050565b6000611b9b8383611b71565b9150826002028217905092915050565b611bb482611839565b67ffffffffffffffff811115611bcd57611bcc61160b565b5b611bd782546119c4565b611be2828285611b1e565b600060209050601f831160018114611c155760008415611c03578287015190505b611c0d8582611b8f565b865550611c75565b601f198416611c23866119f5565b60005b82811015611c4b57848901518255600182019150602085019450602081019050611c26565b86831015611c685784890151611c64601f891682611b71565b8355505b6001600288020188555050505b505050505050565b7f536f75726365206d75737420626520746865206f7261636c65206f662074686560008201527f2072657175657374000000000000000000000000000000000000000000000000602082015250565b6000611cd9602883611844565b9150611ce482611c7d565b604082019050919050565b60006020820190508181036000830152611d0881611ccc565b9050919050565b611d1881611a79565b8114611d2357600080fd5b50565b600081519050611d3581611d0f565b92915050565b600060208284031215611d5157611d506115e6565b5b6000611d5f84828501611d26565b91505092915050565b611d7181611a79565b82525050565b6000604082019050611d8c600083018561196b565b611d996020830184611d68565b9392505050565b60008115159050919050565b611db581611da0565b8114611dc057600080fd5b50565b600081519050611dd281611dac565b92915050565b600060208284031215611dee57611ded6115e6565b5b6000611dfc84828501611dc3565b91505092915050565b7f556e61626c6520746f207472616e736665720000000000000000000000000000600082015250565b6000611e3b601283611844565b9150611e4682611e05565b602082019050919050565b60006020820190508181036000830152611e6a81611e2e565b9050919050565b7f4f776e61626c653a206e6577206f776e657220697320746865207a65726f206160008201527f6464726573730000000000000000000000000000000000000000000000000000602082015250565b6000611ecd602683611844565b9150611ed882611e71565b604082019050919050565b60006020820190508181036000830152611efc81611ec0565b9050919050565b600081905092915050565b60008154611f1b816119c4565b611f258186611f03565b94506001821660008114611f405760018114611f5557611f88565b60ff1983168652811515820286019350611f88565b611f5e856119f5565b60005b83811015611f8057815481890152600182019150602081019050611f61565b838801955050505b50505092915050565b6000611f9c82611839565b611fa68185611f03565b9350611fb6818560208601611855565b80840191505092915050565b6000611fce8285611f0e565b9150611fda8284611f91565b91508190509392505050565b7f4f776e61626c653a2063616c6c6572206973206e6f7420746865206f776e6572600082015250565b600061201c602083611844565b915061202782611fe6565b602082019050919050565b6000602082019050818103600083015261204b8161200f565b9050919050565b7f4e487b7100000000000000000000000000000000000000000000000000000000600052601160045260246000fd5b600061208c82611a79565b915061209783611a79565b9250817fffffffffffffffffffffffffffffffffffffffffffffffffffffffffffffffff04831182151516156120d0576120cf612052565b5b828202905092915050565b60006120e682611a79565b91506120f183611a79565b9250827fffffffffffffffffffffffffffffffffffffffffffffffffffffffffffffffff0382111561212657612125612052565b5b828201905092915050565b7f4e487b7100000000000000000000000000000000000000000000000000000000600052603260045260246000fd5b600061216b82611a79565b91506000820361217e5761217d612052565b5b600182039050919050565b7f537472696e67733a20686578206c656e67746820696e73756666696369656e74600082015250565b60006121bf602083611844565b91506121ca82612189565b602082019050919050565b600060208201905081810360008301526121ee816121b2565b9050919050565b60007fffffffff0000000000000000000000000000000000000000000000000000000082169050919050565b61222a816121f5565b82525050565b600081519050919050565b600082825260208201905092915050565b600061225782612230565b612261818561223b565b9350612271818560208601611855565b61227a816115fa565b840191505092915050565b600060e08201905061229a600083018a61196b565b6122a76020830189611d68565b6122b460408301886115b2565b6122c16060830187612221565b6122ce6080830186611d68565b6122db60a0830185611d68565b81810360c08301526122ed818461224c565b905098975050505050505050565b7f4e487b7100000000000000000000000000000000000000000000000000000000600052601260045260246000fd5b600061233582611a79565b915061234083611a79565b9250826123505761234f6122fb565b5b828206905092915050565b600061236682611a79565b915061237183611a79565b92508282101561238457612383612052565b5b828203905092915050565b60006123aa6123a56123a0846117ae565b611a83565b6117ae565b9050919050565b60006123bc8261238f565b9050919050565b60006123ce826123b1565b9050919050565b60008160601b9050919050565b60006123ed826123d5565b9050919050565b60006123ff826123e2565b9050919050565b612417612412826123c3565b6123f4565b82525050565b6000819050919050565b61243861243382611a79565b61241d565b82525050565b600061244a8285612406565b60148201915061245a8284612427565b6020820191508190509392505050565b600060608201905061247f600083018661196b565b61248c6020830185611d68565b818103604083015261249e818461224c565b9050949350505050565b7f756e61626c6520746f207472616e73666572416e6443616c6c20746f206f726160008201527f636c650000000000000000000000000000000000000000000000000000000000602082015250565b6000612504602383611844565b915061250f826124a8565b604082019050919050565b60006020820190508181036000830152612533816124f7565b9050919050565b60008160011c9050919050565b6000808291508390505b60018511156125915780860481111561256d5761256c612052565b5b600185161561257c5780820291505b808102905061258a8561253a565b9450612551565b94509492505050565b6000826125aa5760019050612666565b816125b85760009050612666565b81600181146125ce57600281146125d857612607565b6001915050612666565b60ff8411156125ea576125e9612052565b5b8360020a91508482111561260157612600612052565b5b50612666565b5060208310610133831016604e8410600b841016171561263c5782820a90508381111561263757612636612052565b5b612666565b6126498484846001612547565b925090508184048111156126605761265f612052565b5b81810290505b9392505050565b600061267882611a79565b915061268383611a79565b92506126b07fffffffffffffffffffffffffffffffffffffffffffffffffffffffffffffffff848461259a565b90509291505056fea264697066735822122034749504b0b832b113ce2f1cb9a4b41712bde66adadfd35db06c91b908aca81864736f6c634300080f0033",
  "devdoc": {
    "kind": "dev",
    "methods": {
      "constructor": {
        "params": {
          "_fee": "- node operator price per API call / data request",
          "_job_Id": "- specific job for :_operator: to run; each job is unique and returns different types of data",
          "_link_Token": "- LINK token address on the corresponding network",
          "_operator": "- address of the specific Chainlink node that a contract makes an API call from"
        }
      },
      "getVerificationStatus(address)": {
        "params": {
          "_user": "- the user to retrieve verification status for."
        }
      },
      "owner()": {
        "details": "Returns the address of the current owner."
      },
      "renounceOwnership()": {
        "details": "Leaves the contract without owner. It will not be possible to call `onlyOwner` functions anymore. Can only be called by the current owner. NOTE: Renouncing ownership will leave the contract without an owner, thereby removing any functionality that is only available to the owner."
      },
      "requestHumanityStatus()": {
        "returns": {
          "requestId": "- unique request identifier"
        }
      },
      "setQueryParams(string,string)": {
        "params": {
          "_baseApi": "- Set the base URL to perform the GET request on",
          "_path": "- the path to walk when an api call is made"
        }
      },
      "transferOwnership(address)": {
        "details": "Transfers ownership of the contract to a new account (`newOwner`). Can only be called by the current owner."
      }
    },
    "version": 1
  },
  "userdoc": {
    "kind": "user",
    "methods": {
      "constructor": {
        "notice": "Executes once when a contract is created to initialize state variables"
      },
      "fulfillHumanityStatus(bytes32,string)": {
        "notice": "Receive the response in the form of a string"
      },
      "getVerificationStatus(address)": {
        "notice": "get the users verification status (approved, declined, pending ...)"
      },
      "requestHumanityStatus()": {
        "notice": "Create a Chainlink request to retrieve API response, and find the target (status)."
      },
      "setQueryParams(string,string)": {
        "notice": "sets the chainlink request parameters"
      },
      "withdrawLink()": {
        "notice": "Allow the withdrawal of Link tokens from the contract"
      }
    },
    "notice": "Request testnet LINK and ETH here: https://faucets.chain.link/ Find information on LINK Token Contracts and get the latest ETH and LINK faucets here: https://docs.chain.link/docs/link-token-contracts/ Run your own chainlink Node and deploy an operator contract: https://docs.chain.link/docs/running-a-chainlink-node/",
    "version": 1
  },
  "storageLayout": {
    "storage": [
      {
        "astId": 319,
        "contract": "contracts/AreYouHuman.sol:AreYouHuman",
        "label": "s_ens",
        "offset": 0,
        "slot": "0",
        "type": "t_contract(ENSInterface)974"
      },
      {
        "astId": 321,
        "contract": "contracts/AreYouHuman.sol:AreYouHuman",
        "label": "s_ensNode",
        "offset": 0,
        "slot": "1",
        "type": "t_bytes32"
      },
      {
        "astId": 324,
        "contract": "contracts/AreYouHuman.sol:AreYouHuman",
        "label": "s_link",
        "offset": 0,
        "slot": "2",
        "type": "t_contract(LinkTokenInterface)1069"
      },
      {
        "astId": 327,
        "contract": "contracts/AreYouHuman.sol:AreYouHuman",
        "label": "s_oracle",
        "offset": 0,
        "slot": "3",
        "type": "t_contract(OperatorInterface)1149"
      },
      {
        "astId": 330,
        "contract": "contracts/AreYouHuman.sol:AreYouHuman",
        "label": "s_requestCount",
        "offset": 0,
        "slot": "4",
        "type": "t_uint256"
      },
      {
        "astId": 334,
        "contract": "contracts/AreYouHuman.sol:AreYouHuman",
        "label": "s_pendingRequests",
        "offset": 0,
        "slot": "5",
        "type": "t_mapping(t_bytes32,t_address)"
      },
      {
        "astId": 2183,
        "contract": "contracts/AreYouHuman.sol:AreYouHuman",
        "label": "_owner",
        "offset": 0,
        "slot": "6",
        "type": "t_address"
      },
      {
        "astId": 2556,
        "contract": "contracts/AreYouHuman.sol:AreYouHuman",
        "label": "path",
        "offset": 0,
        "slot": "7",
        "type": "t_string_storage"
      },
      {
        "astId": 2558,
        "contract": "contracts/AreYouHuman.sol:AreYouHuman",
        "label": "baseApi",
        "offset": 0,
        "slot": "8",
        "type": "t_string_storage"
      },
      {
        "astId": 2562,
        "contract": "contracts/AreYouHuman.sol:AreYouHuman",
        "label": "s_RequestIdToUser",
        "offset": 0,
        "slot": "9",
        "type": "t_mapping(t_bytes32,t_address)"
      },
      {
        "astId": 2566,
        "contract": "contracts/AreYouHuman.sol:AreYouHuman",
        "label": "s_UserToVerificationStatus",
        "offset": 0,
        "slot": "10",
        "type": "t_mapping(t_address,t_string_storage)"
      }
    ],
    "types": {
      "t_address": {
        "encoding": "inplace",
        "label": "address",
        "numberOfBytes": "20"
      },
      "t_bytes32": {
        "encoding": "inplace",
        "label": "bytes32",
        "numberOfBytes": "32"
      },
      "t_contract(ENSInterface)974": {
        "encoding": "inplace",
        "label": "contract ENSInterface",
        "numberOfBytes": "20"
      },
      "t_contract(LinkTokenInterface)1069": {
        "encoding": "inplace",
        "label": "contract LinkTokenInterface",
        "numberOfBytes": "20"
      },
      "t_contract(OperatorInterface)1149": {
        "encoding": "inplace",
        "label": "contract OperatorInterface",
        "numberOfBytes": "20"
      },
      "t_mapping(t_address,t_string_storage)": {
        "encoding": "mapping",
        "key": "t_address",
        "label": "mapping(address => string)",
        "numberOfBytes": "32",
        "value": "t_string_storage"
      },
      "t_mapping(t_bytes32,t_address)": {
        "encoding": "mapping",
        "key": "t_bytes32",
        "label": "mapping(bytes32 => address)",
        "numberOfBytes": "32",
        "value": "t_address"
      },
      "t_string_storage": {
        "encoding": "bytes",
        "label": "string",
        "numberOfBytes": "32"
      },
      "t_uint256": {
        "encoding": "inplace",
        "label": "uint256",
        "numberOfBytes": "32"
      }
    }
  }
}