{
  "address": "0xE0880410C46b646eD9b9D755d11990212B9af934",
  "abi": [
    {
      "inputs": [],
      "name": "isVerified",
      "outputs": [
        {
          "internalType": "bool",
          "name": "",
          "type": "bool"
        }
      ],
      "stateMutability": "view",
      "type": "function"
    },
    {
      "inputs": [],
      "name": "requiresHumanity",
      "outputs": [],
      "stateMutability": "nonpayable",
      "type": "function"
    },
    {
      "inputs": [],
      "name": "storageVar",
      "outputs": [
        {
          "internalType": "uint256",
          "name": "",
          "type": "uint256"
        }
      ],
      "stateMutability": "view",
      "type": "function"
    }
  ],
  "transactionHash": "0x876eac88707f840b84d8532dbbede3a31a69218f82061c41ab70a404ba9552dc",
  "args": [],
  "numDeployments": 1,
  "solcInputHash": "75fcdcec3c5c432b90ece81e792a3329",
  "bytecode": "0x6080604052739eb6dd0d51522a6aece199b77c431995e58697eb6000806101000a81548173ffffffffffffffffffffffffffffffffffffffff021916908373ffffffffffffffffffffffffffffffffffffffff160217905550600060015534801561006957600080fd5b506105dd806100796000396000f3fe608060405234801561001057600080fd5b50600436106100415760003560e01c80636c827cb11461004657806380007e8314610064578063d1cf87ed14610082575b600080fd5b61004e61008c565b60405161005b9190610231565b60405180910390f35b61006c610092565b6040516100799190610267565b60405180910390f35b61008a6101a2565b005b60015481565b6000806040518060400160405280600881526020017f617070726f766564000000000000000000000000000000000000000000000000815250905060008060009054906101000a900473ffffffffffffffffffffffffffffffffffffffff1673ffffffffffffffffffffffffffffffffffffffff16636103681a6101146101c0565b6040518263ffffffff1660e01b815260040161013091906102c3565b600060405180830381865afa15801561014d573d6000803e3d6000fd5b505050506040513d6000823e3d601f19601f82011682018060405250810190610176919061045c565b905081805190602001208180519060200120036101985760019250505061019f565b6000925050505b90565b6101aa6101c8565b600180546101b891906104d4565b600181905550565b600033905090565b600115156101d4610092565b151514610216576040517f08c379a000000000000000000000000000000000000000000000000000000000815260040161020d90610587565b60405180910390fd5b565b6000819050919050565b61022b81610218565b82525050565b60006020820190506102466000830184610222565b92915050565b60008115159050919050565b6102618161024c565b82525050565b600060208201905061027c6000830184610258565b92915050565b600073ffffffffffffffffffffffffffffffffffffffff82169050919050565b60006102ad82610282565b9050919050565b6102bd816102a2565b82525050565b60006020820190506102d860008301846102b4565b92915050565b6000604051905090565b600080fd5b600080fd5b600080fd5b600080fd5b6000601f19601f8301169050919050565b7f4e487b7100000000000000000000000000000000000000000000000000000000600052604160045260246000fd5b610345826102fc565b810181811067ffffffffffffffff821117156103645761036361030d565b5b80604052505050565b60006103776102de565b9050610383828261033c565b919050565b600067ffffffffffffffff8211156103a3576103a261030d565b5b6103ac826102fc565b9050602081019050919050565b60005b838110156103d75780820151818401526020810190506103bc565b838111156103e6576000848401525b50505050565b60006103ff6103fa84610388565b61036d565b90508281526020810184848401111561041b5761041a6102f7565b5b6104268482856103b9565b509392505050565b600082601f830112610443576104426102f2565b5b81516104538482602086016103ec565b91505092915050565b600060208284031215610472576104716102e8565b5b600082015167ffffffffffffffff8111156104905761048f6102ed565b5b61049c8482850161042e565b91505092915050565b7f4e487b7100000000000000000000000000000000000000000000000000000000600052601160045260246000fd5b60006104df82610218565b91506104ea83610218565b9250827fffffffffffffffffffffffffffffffffffffffffffffffffffffffffffffffff0382111561051f5761051e6104a5565b5b828201905092915050565b600082825260208201905092915050565b7f686173206e6f7420706173732068756d616e20766572696669636174696f6e00600082015250565b6000610571601f8361052a565b915061057c8261053b565b602082019050919050565b600060208201905081810360008301526105a081610564565b905091905056fea26469706673582212209a25e1aa0dba293179cdde146591bc8d58f249d0ca50f1841688c42ae6cb623464736f6c634300080f0033",
  "devdoc": {
    "kind": "dev",
    "methods": {},
    "version": 1
  },
  "userdoc": {
    "kind": "user",
    "methods": {},
    "version": 1
  },
  "storageLayout": {
    "storage": [
      {
        "astId": 2557,
        "contract": "contracts/testContract.sol:Test",
        "label": "consumer",
        "offset": 0,
        "slot": "0",
        "type": "t_contract(APIConsumer)2532"
      },
      {
        "astId": 2622,
        "contract": "contracts/testContract.sol:Test",
        "label": "storageVar",
        "offset": 0,
        "slot": "1",
        "type": "t_uint256"
      }
    ],
    "types": {
      "t_contract(APIConsumer)2532": {
        "encoding": "inplace",
        "label": "contract APIConsumer",
        "numberOfBytes": "20"
      },
      "t_uint256": {
        "encoding": "inplace",
        "label": "uint256",
        "numberOfBytes": "32"
      }
    }
  }
}