{
  "address": "0x56e2809A758aA602865cfa0b676b96EF6F57Bd68",
  "abi": [
    {
      "inputs": [],
      "name": "requiresHumanity",
      "outputs": [],
      "stateMutability": "nonpayable",
      "type": "function"
    },
    {
      "inputs": [],
      "name": "storageVar",
      "outputs": [
        {
          "internalType": "uint256",
          "name": "",
          "type": "uint256"
        }
      ],
      "stateMutability": "view",
      "type": "function"
    }
  ],
  "transactionHash": "0x0355e8d1c11618bfabac19d2c44908d91bcf37006fc930f54ce9e7af30596eb7",
  "args": [],
  "numDeployments": 2,
  "solcInputHash": "e9f6e47e0e7320e95b48bfa118d064f0",
  "bytecode": "0x608060405273f3ee05925ffcd122930c870d7c0fb5e9cc86f4896000806101000a81548173ffffffffffffffffffffffffffffffffffffffff021916908373ffffffffffffffffffffffffffffffffffffffff160217905550600060015534801561006957600080fd5b50610560806100796000396000f3fe608060405234801561001057600080fd5b50600436106100365760003560e01c80636c827cb11461003b578063d1cf87ed14610059575b600080fd5b610043610063565b60405161005091906101ea565b60405180910390f35b610061610069565b005b60015481565b610071610087565b6001805461007f9190610234565b600181905550565b6001151561009361011c565b805190602001206040518060400160405280600881526020017f617070726f766564000000000000000000000000000000000000000000000000815250805190602001201415151461011a576040517f08c379a0000000000000000000000000000000000000000000000000000000008152600401610111906102e7565b60405180910390fd5b565b606060008054906101000a900473ffffffffffffffffffffffffffffffffffffffff1673ffffffffffffffffffffffffffffffffffffffff16636103681a6101626101c9565b6040518263ffffffff1660e01b815260040161017e9190610348565b600060405180830381865afa15801561019b573d6000803e3d6000fd5b505050506040513d6000823e3d601f19601f820116820180604052508101906101c491906104e1565b905090565b600033905090565b6000819050919050565b6101e4816101d1565b82525050565b60006020820190506101ff60008301846101db565b92915050565b7f4e487b7100000000000000000000000000000000000000000000000000000000600052601160045260246000fd5b600061023f826101d1565b915061024a836101d1565b9250827fffffffffffffffffffffffffffffffffffffffffffffffffffffffffffffffff0382111561027f5761027e610205565b5b828201905092915050565b600082825260208201905092915050565b7f68756d616e20766572696669636174696f6e2072657175697265642100000000600082015250565b60006102d1601c8361028a565b91506102dc8261029b565b602082019050919050565b60006020820190508181036000830152610300816102c4565b9050919050565b600073ffffffffffffffffffffffffffffffffffffffff82169050919050565b600061033282610307565b9050919050565b61034281610327565b82525050565b600060208201905061035d6000830184610339565b92915050565b6000604051905090565b600080fd5b600080fd5b600080fd5b600080fd5b6000601f19601f8301169050919050565b7f4e487b7100000000000000000000000000000000000000000000000000000000600052604160045260246000fd5b6103ca82610381565b810181811067ffffffffffffffff821117156103e9576103e8610392565b5b80604052505050565b60006103fc610363565b905061040882826103c1565b919050565b600067ffffffffffffffff82111561042857610427610392565b5b61043182610381565b9050602081019050919050565b60005b8381101561045c578082015181840152602081019050610441565b8381111561046b576000848401525b50505050565b600061048461047f8461040d565b6103f2565b9050828152602081018484840111156104a05761049f61037c565b5b6104ab84828561043e565b509392505050565b600082601f8301126104c8576104c7610377565b5b81516104d8848260208601610471565b91505092915050565b6000602082840312156104f7576104f661036d565b5b600082015167ffffffffffffffff81111561051557610514610372565b5b610521848285016104b3565b9150509291505056fea2646970667358221220546076e327fb3922456641cf1076d4eed56f71ef1562f2ce7b45607c88eaf83664736f6c634300080f0033",
  "devdoc": {
    "kind": "dev",
    "methods": {},
    "version": 1
  },
  "userdoc": {
    "kind": "user",
    "methods": {},
    "version": 1
  },
  "storageLayout": {
    "storage": [
      {
        "astId": 2801,
        "contract": "contracts/testContract.sol:Test",
        "label": "consumer",
        "offset": 0,
        "slot": "0",
        "type": "t_contract(AreYouHuman)2774"
      },
      {
        "astId": 2858,
        "contract": "contracts/testContract.sol:Test",
        "label": "storageVar",
        "offset": 0,
        "slot": "1",
        "type": "t_uint256"
      }
    ],
    "types": {
      "t_contract(AreYouHuman)2774": {
        "encoding": "inplace",
        "label": "contract AreYouHuman",
        "numberOfBytes": "20"
      },
      "t_uint256": {
        "encoding": "inplace",
        "label": "uint256",
        "numberOfBytes": "32"
      }
    }
  }
}